:1017A100EF1FAA0670011E4A6013E4FCFDC3ED940D
:0D17B100A4EC940050EA0DBD00010C80F086
:0117BE002208
:0B18D900EF1FAC0670011E4C70F622E1
:05190300C296C295220E
:0B18E400758911C28EE4F58DF58B2292
:0C18C100D2957F027E001218D9C2952239
:10171D001219031218E41218C13096FDD28E2096BC
:10172D00FDC28EAF8DEFFEAD8B7C00E42DFFEC3E48
:10173D00FEE4FD1209057B7B7A14792E783E1207A3
:04174D005F120943DB
:011751002275
:0A18EF0064697374616E63653A006A
:10185700759850758780758921758DF4758BF4D2CD
:041867008ED2AF224C
:080003008F993099FDC299228A
:10187F00120A33FF600C120003740129F9E43AFADB
:03188F0080EE22C6
:040BF6008C238D249B
:100BFA00E4F526753B03753CE8753D03753EE8F55B
:100C0A0025E52424FFFFE52334FFFEAD25ED3395CA
:100C1A00E0FCC3ED9FEE6480F8EC6480985055EDDB
:100C2A002401FFE43CFEEF25E0FFEE338F82F583DB
:100C3A00120AECFDACF0AF25EF3395E0FEEF25E0AC
:100C4A00FFEE338F82F583120AECFFC3ED9FFDECB2
:100C5A0095F0FCAF25EF3395E0FEEF25E0FFEE338C
:100C6A00FE74422FF58274003EF583ECF0A3EDF09A
:100C7A000525808DE4F525E52424FEFFE52334FFD0
:100C8A00FEAD25ED3395E0FCC3ED9FEE6480F8ECF4
:100C9A006480984003020DC2ED25E0FFEC33FE7438
:100CAA00422FF58274003EF583E0FCA3E0D3940062
:100CBA00EC648094804003020DBD74442FF5827465
:100CCA00003EF583E0FEA3E0D39400EE64809480B6
:100CDA005003020DBDE526648094825020AF25EFB3
:100CEA003395E0FEEF2401FFE43EFEAD260526ED36
:100CFA0025E0243BF8A60608A607020DBDAF25EF9E
:100D0A003395E0FEEF2401FFE43EFEEF25E0FFEE1F
:100D1A00338F82F583120AECFDACF0E53C25E0FF47
:100D2A00E53B338F82F583120AECFFC3ED9FEC9506
:100D3A00F0503AE53E25E0FFE53D338F82F5831218
:100D4A000AECFDACF0E53C25E0FFE53B338F82F58C
:100D5A0083120AECD39DE5F09C4012AF25EF339540
:100D6A00E0FEEF2401F53CE43EF53B8046AF25EF7B
:100D7A003395E0FEEF2401FFE43EFEEF25E0FFEEAF
:100D8A00338F82F583120AECFDACF0E53E25E0FFD5
:100D9A00E53D338F82F583120AECFFC3ED9FEC9594
:100DAA00F05010AF25EF3395E0FEEF2401F53EE455
:100DBA003EF53D0525020C81D3900043E094009056
:100DCA000042E064809480406AE53C25E0FFE53B10
:100DDA00338F82F583120AECFFAEF0120AC1C39F69
:100DEA00E5F09E502DE53E25E0FFE53D338F82F587
:100DFA0083120AECFDACF0E53C25E0FFE53B338FBE
:100E0A0082F583120AECD39DE5F09C4005E4F53B9C
:100E1A00F53CE53E25E0FFE53D338F82F583120A76
:100E2A00ECFFAEF0120AC1C39FE5F09E5005E4F54F
:100E3A003DF53EE52425E0FFE52333FE743E2FF51C
:100E4A008274003EF583E0FEC3EE64809480400322
:100E5A00020F01E52424FFFFE52334FFFEEF25E01E
:100E6A00FFEE338F82F583120AECFDACF0E53C25E8
:100E7A00E0FFE53B338F82F583120AECFFC3ED9F57
:100E8A00EC95F05034E53E25E0FFE53D338F82F5E1
:100E9A0083120AECFDACF0E53C25E0FFE53B338F1D
:100EAA0082F583120AECD39DE5F09C400CE52424DC
:100EBA00FFF53CE52334FFF53BE52424FFFFE5235A
:100ECA0034FFFEEF25E0FFEE338F82F583120AEC42
:100EDA00FDACF0E53E25E0FFE53D338F82F5831258
:100EEA000AECFFC3ED9FEC95F0500CE52424FFF5C6
:100EFA003EE52334FFF53DE53C25E0FFE53B338F36
:100F0A0082F583120AECF54085F03FE53E25E0FFC5
:100F1A00E53D338F82F583120AECF54285F041C331
:100F2A00E53C953EFDE53B953DFC12090A7BD37AEB
:100F3A003179E2784112075FE4FBFA793478431297
:100F4A000868121349C004C005C006C007E5402559
:100F5A00E0FFE53F33FEAC41AD42120A79AC06AD83
:100F6A0007E412090AD003D002D001D00012075FA9
:100F7A00C004C005C006C007AC41AD42AE41AF4295
:100F8A00120A79AA06AB07AC3FAD40AE3FAF40129A
:100F9A000A79EF2BFDEE3AFCE412090AD003D002DB
:0D0FAA00D001D00012066A1215A4120943EE
:010FB7002217
:10116900E4F5217522D31218A51218CD7BFF7A1840
:1011790079EF7D0A7C007F0A7E0012146FE4F52165
:10118900AF2212175274092522F52212171DAC0637
:10119900AD07AF21EF3395E0FEEF7802C333CE33CD
:1011A900CED8F92400F58274003EF583ECF0A3ED66
:1011B900F012171DAC06AD07AF21EF3395E0FEEF36
:1011C9007802C333CE33CED8F92402F58274003EB7
:1011D900F583ECF0A3EDF00521C3E5216480948B40
:1011E900409EE4F521E521FD3395E0FCEDAE047860
:1011F90002C333CE33CED8F9FF2402F58274003E00
:10120900F583E0FAA3E0FB74002FF58274003EF544
:1012190083E0FEA3E02BFFEE3AC313FAEF13FBEDD5
:1012290025E0FFEC33FE74002FF58274003EF58350
:10123900EAF0A3EBF074002FF58274003EF583E029
:10124900FEA3E0C394E8EE9403401FAF21EF33956A
:10125900E0FEEF25E0FFEE33FE74002FF582740007
:101269003EF5837403F0A374E8F0AF21EF3395E002
:10127900FEEF25E0FFEE33FE74002FF58274003E89
:10128900F583E0FCA3E0D394C8EC940050107400FB
:101299002FF58274003EF583E4F0A374C8F00521AC
:1012A900E521640B60030211EE7B017A0079007D70
:1012B9000B7C00120BF690002CEEF0A3EFF0D39408
:1012C900B0EE9404400A90002C7404F0A374B0F0BA
:1012D900C390002DE0946490002CE094005006E443
:1012E900F0A37464F07B017A00792E7D2A7C007F5B
:0812F9000A7E0012146F80FE52
:0E18A500758911758CFF758A9CD2A9D2AF226D
:03000B0002189246
:10189200C0E0758CFF758A9C0509E5097002050890
:0318A200D0E03261
:0419080002080000D1
:10175200EF75F009120A11240FFF7E0FD28CEE6092
:101762001BEFB50906E4B50802C297E50964C8454E
:0E1772000870EBD297F508F5091E80E2C28CD4
:011780002246
:10000E000000FE860C180C0606C67C00000000766A
:10001E00DC0000780C7CCCCC760000000000007672
:10002E00DC00007CC60606C67C00000000000076E0
:10003E00DC0000DC666666666600000000000000FC
:10004E0000000076999F98996F0000000000000054
:10005E0000000000000000000C060600000000007A
:10006E00000000000000003C66663C00000000003E
:10007E000000000000000000000000000000000072
:10008E00183C3C3C1818001818000000000000C670
:10009E00C6C6440000000000000000000000000082
:1000AE006C6CFE6C6C6CFE6C6C0000000000181822
:1000BE007CC6C2C07C0686C67C18180000000000F4
:1000CE000000C3C60C183063C3000000000000001F
:1000DE00386C6C3876DCCCCC76000000000000303A
:1000EE003030600000000000000000000000000042
:1000FE001830606060606030180000000000000082
:10010E00180C06060606060C18000000000000007B
:10011E0000006C38FE386C0000000000000000008B
:10012E00001818187E1818180000000000000000B3
:10013E000000000000001818183000000000000039
:10014E0000000000FE0000000000000000000000A3
:10015E000000000000000018180000000000000061
:10016E0002060C183060C080000000000000000085
:10017E007CC6CEDEF6E6C6C67C000000000000009F
:10018E0018387818181818187E00000000000000A3
:10019E007CC6060C183060C6FE0000000000000091
:1001AE007CC606063C0606C67C0000000000000069
:1001BE000C1C3C6CCCFE0C0C1E0000000000000061
:1001CE00FEC0C0C0FC0606C67C0000000000000099
:1001DE003860C0C0FCC6C6C67C000000000000002F
:1001EE00FEC6060C18303030300000000000000053
:1001FE007CC6C6C67CC6C6C67C00000000000000D9
:10020E007CC6C6C67E06060C780000000000000004
:10021E000018180000001818000000000000000070
:10022E000018180000001818300000000000000030
:10023E00060C18306030180C06000000000000009C
:10024E000000007E00007E000000000000000000A4
:10025E006030180C060C1830600000000000000022
:10026E007CC6C60C1818001818000000000000000C
:10027E007CC6C6DEDEDEDCC07C00000000000000B6
:10028E0010386CC6C6FEC6C6C600000000000000D0
:10029E00FC6666667C666666FC0000000000000078
:1002AE003C66C2C0C0C0C2663C0000000000000038
:1002BE00F86C66666666666CF8000000000000006A
:1002CE00FE66626878686266FE000000000000004C
:1002DE00FE66626878686060F00000000000000052
:1002EE003C66C2C0C0DEC6663A00000000000000D8
:1002FE00C6C6C6C6FEC6C6C6C600000000000000C2
:10030E003C181818181818183C00000000000000BF
:10031E001E0C0C0C0C0CCCCC780000000000000065
:10032E00E6666C6C786C6C66E600000000000000FF
:10033E00F060606060606266FE0000000000000019
:10034E00C6EEFED6C6C6C6C6C60000000000000039
:10035E00C6E6F6FEDECEC6C6C600000000000000F1
:10036E00386CC6C6C6C6C66C380000000000000059
:10037E00FC6666667C606060F000000000000000B5
:10038E007CC6C6C6D6DE7C0C0E0000000000000047
:10039E00FC6666667C6C6666E60000000000000087
:1003AE007CC6C660380CC6C67C000000000000008B
:1003BE007E5A1818181818183C000000000000008B
:1003CE00C6C6C6C6C6C6C6C67C0000000000000073
:1003DE00C6C6C6C6C6C66C381000000000000000B7
:1003EE00C6C6C6C6C6D6FEEEC60000000000000099
:1003FE00C6C6C66C386CC6C6C6000000000000003B
:10040E00C6C6C66C383838387C00000000000000C4
:10041E00FEC68C183060C2C6FE0000000000000050
:10042E003C303030303030303C00000000000000F6
:10043E0080C0E070381C0E060200000000000000B4
:10044E003C0C0C0C0C0C0C0C3C000000000010388A
:10045E006CC600000000000000000000000000005C
:10046E0000000000000000000000FE000000003050
:10047E003018000000000000000000000000000026
:10048E00000000780C7CCCCC760000000000000050
:10049E00E06060786C666666DC00000000000000BC
:1004AE000000007CC6C0C0C67C000000000000003A
:1004BE001C0C0C3C6CCCCCCC760000000000000078
:1004CE000000007CC6FEC0C67C00000000000000DC
:1004DE001C3632307C3030307800000000000000D6
:1004EE0000000076CCCCCC7C0CCC78000000000058
:1004FE00E060606C76666666E60000000000000054
:10050E0018180038181818183C00000000000000D9
:10051E000606000E0606060666663C000000000093
:10052E00E06060666C786C66E6000000000000001B
:10053E0038181818181818183C0000000000000091
:10054E0000000044FED6D6D6D60000000000000003
:10055E00000000DC666666666600000000000000B3
:10056E000000007CC6C6C6C67C000000000000006D
:10057E00000000DC6666667C6060F0000000000033
:10058E0000000076CCCCCC7C0C0C1E0000000000D1
:10059E00000000DC76666060F000000000000000E5
:1005AE000000007CC6701CC67C000000000000002D
:1005BE00103030FC303030361C00000000000000DF
:1005CE00000000CCCCCCCCCC7600000000000000AB
:1005DE00000000C6C6C66C38100000000000000007
:1005EE00000000C6C6C6D6FE6C000000000000006B
:1005FE00000000C66C38386CC60000000000000019
:10060E00000000C6C6C6C67E060C780000000000BC
:10061E00000000FECC183066FE0000000000000056
:10062E000E181818701818180E00000000000000A0
:10063E0018181818001818181800000000000000EC
:10064E00701818180E18181870000000000000001E
:09065E0076DC0000000000000041
:10178100E4FDFCC3ED9FEC9E5015E4FBFA0BBB009E
:0F179100010AEB64FA4A70F50DBD00010C80E40B
:0117A0002226
:10182B007E08EF30E704D2A38002C2A3C2A5D2A5E3
:06183B00EF25E0FFDEECEA
:011841002284
:0A18F900C2A0C2A212182BD2A02236
:07186B007F2A1218F9E4FFC7
:0C187200E4F560C2A0D2A212182BD2A094
:01187E002247
:04181300AD07AC066B
:10181700E4F558C2A0D2A2AF0412182BAF051218D4
:031827002BD2A021
:01182A00229B
:0E18B300C2A17F647E00121781D2A1021781AC
:100FB8001218B37F111218F97F787E001217817FFB
:100FC800B11218F97F011218727F2C1218727F2D36
:100FD8001218727FB21218F97F011218727F2C1240
:100FE80018727F2D1218727FB31218F97F01121828
:100FF800727F2C1218727F2D1218727F01121872CC
:101008007F2C1218727F2D1218727FB41218F97F74
:10101800071218727FC01218F97FA21218727F0285
:101028001218727F841218727FC11218F97FC512C4
:1010380018727FC21218F97F0A121872E4FF121888
:10104800727FC31218F97F8A1218727F2A121872D7
:101058007FC41218F97F8A1218727FEE1218727FF5
:10106800C51218F97F0E1218727F361218F97FC848
:101078001218727FE01218F97F0F1218727F1A1275
:1010880018727F0F1218727F181218727F2F121899
:10109800727F281218727F201218727F221218721B
:1010A8007F1F1218727F1B1218727F231218727F0B
:1010B80037121872E4FF1218727F071218727F0233
:1010C8001218727F101218727FE11218F97F0F122E
:1010D80018727F1B1218727F0F1218727F1712185E
:1010E800727F331218727F2C1218727F29121872AD
:1010F8007F2E1218727F301218727F301218727F8A
:10110800391218727F3F121872E4FF1218727F07A3
:101118001218727F031218727F1012187212186B4D
:101128007F02121872E4FF1218727F821218727FFF
:101138002B12186D7F03121872E4FF1218727F8346
:101148001218727FF01218F97F011218727FF612C6
:10115800186D7F3A1218F97F051218727F29021844
:01116800F98D
:0F16D600755E00755F7F7B7F7A00E4FDFCFFFE91
:1016E5008F8212186BAF82EF2402FF121872E4FF8B
:1016F500121872EB2402FF1218727F2B12186DED6F
:101705002403FF121872E4FF121872E55F2403FF29
:081715001218727F2C0218F972
:0417DD008E0A8F0BD6
:1017E1001216D6E4FBE4FAAF0BAE0A1218130ABACA
:0617F10080F50BBB80EF48
:0117F70022CF
:1017BF008A568B57EF2401FBE43EFAED2401F55FC7
:0E17CF00E43CF55E1216E5AF57AE5602181355
:0417F8008E238F2489
:1017FC001216D6E4FBE4FAAF24AE231218130ABA7D
:06180C0080F50BBB80EF2C
:0118120022B3
:0E146F008E238F248C258D268B278A28892991
:10147D00E4F52AF52BAB27AA28A929121842C3E5B2
:10148D002B9FE52A9E400302159FAB27AA28A92969
:10149D00852B82852A83120A4CFFC394A140068FA7
:1014AD0054E4F55522AB27AA28A929852B82852A34
:1014BD0083120A4C24E7FFE4FCFDFE7B10FAF9F8D9
:1014CD00120B248F338E328D318C30E4FFFEE533D9
:1014DD002FFDE5323EFC740E2DF58274003CF58334
:1014ED00E493FD74342FF8A6050FBF00010EEF64D1
:1014FD00104E70DAE4F52EF52FE4F52CF52DAE2C0B
:10150D00AF2D7C007D08120A8B7434252FF8E6FB75
:10151D003395E0FA74807E00A805088006CEA2E718
:10152D0013CE13D8F8FFEE5AFEEF5B4E602DE52477
:10153D00252DFDE523352CFCE52BAE2A7803C33391
:10154D00CE33CED8F92DFFEC3EFEE52F2526FDE559
:10155D002E3525FC7B007AF81217BF052DE52D7071
:10156D0002052CC39408E52C648094804090052FCF
:10157D00E52F7002052EC39410E52E6480948050E3
:10158D0003021506052BE52B6003021482052A02C2
:02159D001482B6
:01159F002229
:0C18CD00120FB8D2A474FFFFFE0217F83F
:100667000209AFE86480F8E933E83360110460F009
:10067700ED33EC337009E8FCE9FDEAFEEBFF2204F9
:1006870060DED3EB9FEA9EE99DE8C2E78CF0C2F7F4
:1006970095F0400CE8CCF8E9CDF9EACEFAEBCFFBC0
:1006A70012097A85D0F05804700320D5B3E8047096
:1006B700075002B2D50209B992D5EC0460F7E4CC31
:1006C700C0E0C398F8603B94186008400DD0E0FB89
:1006D700020991E4FBFAC9FC8028E830E406E4C982
:1006E700FBE4CAFCE830E305E4C9CACBFCE85407DD
:1006F7006010F8C3E913F9EA13FAEB13FBEC13FCE8
:10070700D8F130F52FC3E49CFCEF9BFFEE9AFEED8A
:1007170099FDD0E0FBEF4E4D4C701222DB0302092E
:10072700B6EC2CFCEF33FFEE33FEED33FDED30E797
:10073700EB020991EF2BFFEE3AFEED39FDD0E0FB1E
:1007470050130BBB00030209B9ED13FDEE13FEEFC7
:0807570013FFEC13FC020991F1
:10075F00EC4D6011E8497017ED33EC3304600DE494
:10076F00FCFFFEFD22E933E8330470F80209AF12F3
:10077F00097A58046009E4CC2481500628500902F4
:10078F0009B92840030209B6C0E0EB4A7044B980AA
:10079F0006D0E0FB0209A5EF4E701CBD8008EBFFF1
:1007AF00EAFEE9FD80EBE98DF0A4FEE5F0020848D2
:1007BF00E9CDF9EAFEEBFFEF89F0A4FCE5F0CE8975
:1007CF00F0A42EFFE435F0CD89F0A42DFEE435F032
:1007DF008067EF4E7005BD80D780C3EF8BF0A4AC60
:1007EF00F0EE8BF0A42CFCE435F0F8EF8AF0A42C9B
:1007FF00E5F038FCE433CB8DF0A42CFCE5F03BF8AE
:10080F00EE8AF0A42CFCE5F038F8E433CF89F0A49D
:10081F002CFCE5F038CF3400CE89F0A42FFFE5F0A3
:10082F003EFEE433C98DF0A42EFEE5F039CD8AF0FB
:10083F00A42FFFE5F03EFEE43DFD33D0E0FB500773
:10084F000BBB000F0209B9EC2CFCEF33FFEE33FEAC
:06085F00ED33FD020991DA
:100865000209B9EC5D046005E8590470030209AF9B
:1008750012097A580460F6EC4860F2EC7004FDFE4B
:10088500FF22C860DB2481C85009C3986002500666
:100895000209B69850CAF582E9294B4A7005AB8220
:1008A5000209A575F0007C1A7880C3EF9BEE9AEDDE
:1008B50099400DC3EF9BFFEE9AFEED99FDE842F0DE
:1008C500DC23ACF0D0E0FFD0E0FED0E0FDAB822031
:1008D500E7101BEB60BAEC2CFCEF33FFEE33FEEDBB
:1008E50033FD020991E803F830E705C0F075F00023
:1008F500EF2FFFEE33FEED33FD40B830E7C280AA9F
:1009050075F020800E75F010800575F0087D007E6D
:10091500007F003392D530D503120B73EC334010B2
:10092500EF33FFEE33FEED33FDEC33FCD5F0ED2276
:0E093500E5F0247EA2D513CC92E7CDCEFF22B2
:10094300EDD2E7CD33EC3392D524814006E4FFFEAC
:10095300FDFC22FCE4CFCECDCC24E0501174FF800B
:10096300EDC3CC13CCCD13CDCE13CECF13CF0470A8
:07097300F030D5DE020B732A
:1015A0000209AF22EDA2E7D2E7F9EC3340F260F393
:1015B000B4FF08ED547F70E80209B9F82481C2E055
:1015C000C0E0F40428FAC313FCED92E7FD8C438DD0
:1015D000448E458F46EEA2E7E9BA7F02C31334007A
:1015E0009400FA75F091A4E5F013F494FE8AF0A447
:1015F00033E5F033248CD313FDE492E7FE7F007CC7
:101600003F758302ECC0E0F8EDC0E0F9EEC0E0FA0F
:10161000EFC0E0FBAC43AD44AE45AF46120868D026
:10162000E0FBD0E0FAD0E0F9D0E0F812066EED640D
:1016300080FD30E7011CD583CBED33CC33F8D0E00F
:0A164000A2E71328C313CC13FD2208
:101301003A70FA83BCAAE9E43E81E0F8BF9DE9E6C0
:101311003F80000039283C1ABB9969663DA335E33B
:10132100BF255DE73FC90FDB418DDBCCC44936EEFC
:1013310045C9913FC5B0F83D3F800000C317F53462
:10134100452FFA73C60AFDDD1213F004A2E19200E3
:101351001420E01590130174041209C4802612139D
:10136100F030E102B20020E0EB8C438D448E458FDA
:101371004690131574041209C4A843A944AA45ABA5
:101381004612075FED4C6007300004EC6480FC22DC
:101391001213F0C0E08C438D448E458F4690133973
:1013A10074031209C4A843A944AA45AB4612075FB6
:1013B100ECC543FCEDC544FDEEC545FEEFC546FF5A
:1013C10090132974031209C4D082A843A944AA45E1
:1013D100AB46E58230E007120868B20080A6EFCB89
:1013E100FFEECAFEEDC9FDECC8FC1208688095ED60
:1013F10033EC547FCC33920024605007D0E0D0E02E
:101401000209AF7B837AF97922783E12075FEDF901
:1014110033ECF83324815011EFFBEEFA1209431239
:101421000905ECB2E7FC12066EED33EC33602F24B4
:1014310003F8C313FCED92E7FDE82481E4501FECAF
:10144100F8EDF9EEFAEFFB120943EF04C2E0FCF507
:101451008212090FECB2E7FC12066EE58203FAED87
:0E14610033EC3360071413FCED92E7FDEA2232
:10097A00E9D2E7C933E833F892D5EDD2E7CD33ECC3
:07098A0033FC5002B2D5223C
:10099100EC30E7100FBF000C0EBE00080DBD0004C7
:1009A1000BEB6014A2D5EB13FCED92E7FD2274FF73
:1009B100FCFDFEFF22E480F8A2D574FF13FC7D80CC
:0309C100E480EFE0
:1009C400C0E0EFFBEEFAEDF9ECF812075FD0E0F5CA
:1009D400F0EFFBEEFAEDF9ECF8120B81A3A3A3A35D
:1009E400E8C0E0E9C0E0EAC0E0EBC0E0C0F0120714
:1009F4005F120B91A3A3A3A312066ED0F0D0E0FB69
:0D0A0400D0E0FAD0E0F9D0E0F8D5F0D4222F
:0300000002164A9B
:0C164A00787FE4F6D8FD758160021691EF
:100A1100C2D530F707B2D563F0FF05F030E70CB26D
:100A2100D5F4048463F0FF05F080018430D502F42D
:020A310004229D
:100A3300BB010689828A83E0225002E722BBFE02C1
:090A4300E32289828A83E49322F4
:100A4C00BB010CE58229F582E5833AF583E022505F
:100A5C0006E92582F8E622BBFE06E92582F8E222A9
:0D0A6C00E58229F582E5833AF583E49322C3
:100A7900EF8DF0A4A8F0CF8CF0A428CE8DF0A42E91
:020A8900FE224B
:100A8B00C2D5EC30E709B2D5E4C39DFDE49CFCEE86
:100A9B0030E715B2D5E4C39FFFE49EFE120BA1C352
:100AAB00E49DFDE49CFC8003120BA130D507C3E44D
:060ABB009FFFE49EFE22F5
:100AC100BB010A89828A83E0F5F0A3E02250068700
:100AD100F009E71922BBFE07E3F5F009E3192289C2
:0B0AE100828A83E493F5F074019322F5
:100AEC00BB0110E58229F582E5833AF583E0F5F048
:100AFC00A3E0225009E92582F886F008E622BBFE25
:100B0C000AE92582F8E2F5F008E222E5832AF5836A
:080B1C00E993F5F0A3E993222F
:100B2400E88FF0A4CC8BF0A42CFCE98EF0A42CFC70
:100B34008AF0EDA42CFCEA8EF0A4CDA8F08BF0A4EE
:100B44002DCC3825F0FDE98FF0A42CCD35F0FCEB4D
:100B54008EF0A4FEA9F0EB8FF0A4CFC5F02ECD3912
:0F0B6400FEE43CFCEAA42DCE35F0FDE43CFC227F
:0E0B7300C3E49FFFE49EFEE49DFDE49CFC2293
:100B8100E493FC740193FD740293FE740393FF22BA
:100B9100E493F8740193F9740293FA740393FB22BA
:10184200E4FFFE120A33600C0FEF70010E09E9701B
:05185200F20A80EF2204
:10165600021169E493A3F8E493A34003F68001F230
:1016660008DFF48029E493A3F85407240CC8C33395
:10167600C4540F4420C8834004F456800146F6DF64
:10168600E4800B0102040810204080901908E47ED3
:10169600019360BCA3FF543F30E509541FFEE49359
:1016A600A360010ECF54C025E060A840B8E493A320
:1016B600FAE493A3F8E493A3C8C582C8CAC583CA4B
:1016C600F0A3C8C582C8CAC583CADFE9DEE780BE03
:01190C0000DA
:100BA100BC000BBE0029EF8DF084FFADF022E4CC38
:100BB100F875F008EF2FFFEE33FEEC33FCEE9DEC01
:100BC100984005FCEE9DFE0FD5F0E9E4CEFD22ED47
:100BD100F8F5F0EE8420D21CFEADF075F008EF2F91
:100BE100FFED33FD4007985006D5F0F222C398FD82
:050BF1000FD5F0EA221F
:00000001FF
